{
  "contractName": "Attacker",
  "abi": [
    {
      "inputs": [
        {
          "internalType": "address",
          "name": "_v",
          "type": "address"
        }
      ],
      "payable": false,
      "stateMutability": "nonpayable",
      "type": "constructor"
    },
    {
      "constant": true,
      "inputs": [],
      "name": "iTrickedIt",
      "outputs": [
        {
          "internalType": "bool",
          "name": "",
          "type": "bool"
        }
      ],
      "payable": false,
      "stateMutability": "view",
      "type": "function"
    }
  ],
  "bytecode": "0x608060405234801561001057600080fd5b506040516101e43803806101e48339818101604052602081101561003357600080fd5b810190808051906020019092919050505080600060016101000a81548173ffffffffffffffffffffffffffffffffffffffff021916908373ffffffffffffffffffffffffffffffffffffffff160217905550600060019054906101000a900473ffffffffffffffffffffffffffffffffffffffff1673ffffffffffffffffffffffffffffffffffffffff1663f7ec2f356040518163ffffffff1660e01b815260040160206040518083038186803b1580156100ed57600080fd5b505afa158015610101573d6000803e3d6000fd5b505050506040513d602081101561011757600080fd5b8101908080519060200190929190505050156000806101000a81548160ff021916908315150217905550506094806101506000396000f3fe6080604052348015600f57600080fd5b506004361060285760003560e01c806351b16b8114602d575b600080fd5b6033604d565b604051808215151515815260200191505060405180910390f35b6000809054906101000a900460ff168156fea265627a7a723158209a2ce4f79858099864c3298c4f91a0609cf874c59f6cd6dd109560ab4959031a64736f6c63430005100032",
  "source": "pragma solidity 0.5.16;\n\ncontract Victim {\n    function isContract() public view returns(bool){\n      uint32 size;\n      address a = msg.sender;\n      assembly {\n        size := extcodesize(a)\n      }\n      return (size > 0);\n    }\n}\ncontract Attacker {\n    bool public iTrickedIt;\n    Victim v;\n    constructor(address _v) public {\n        v = Victim(_v);\n        \n        iTrickedIt = !v.isContract();\n    }\n}",
  "sourcePath": "C:/Users/andre/Desktop/final_assigment/contracts/Springboard.sol",
  "compiler": {
    "name": "solc",
    "version": "0.5.16+commit.9c3226ce.Emscripten.clang"
  },
  "schemaVersion": "3.0.22",
  "updatedAt": "2020-03-29T23:45:33.762Z",
  "devdoc": {
    "methods": {}
  },
  "userdoc": {
    "methods": {}
  }
}