{
  "contractName": "Verify",
  "abi": [
    {
      "inputs": [],
      "payable": true,
      "stateMutability": "payable",
      "type": "constructor"
    },
    {
      "constant": false,
      "inputs": [],
      "name": "withdrawAll",
      "outputs": [],
      "payable": false,
      "stateMutability": "nonpayable",
      "type": "function"
    },
    {
      "constant": true,
      "inputs": [],
      "name": "isContract",
      "outputs": [
        {
          "internalType": "bool",
          "name": "",
          "type": "bool"
        }
      ],
      "payable": false,
      "stateMutability": "view",
      "type": "function"
    }
  ],
  "bytecode": "0x6080604052336000806101000a81548173ffffffffffffffffffffffffffffffffffffffff021916908373ffffffffffffffffffffffffffffffffffffffff1602179055506101ca806100536000396000f3fe608060405234801561001057600080fd5b50600436106100365760003560e01c8063853828b61461003b578063f7ec2f3514610045575b600080fd5b610043610067565b005b61004d610178565b604051808215151515815260200191505060405180910390f35b6000809054906101000a900473ffffffffffffffffffffffffffffffffffffffff1673ffffffffffffffffffffffffffffffffffffffff163373ffffffffffffffffffffffffffffffffffffffff1614610129576040517f08c379a000000000000000000000000000000000000000000000000000000000815260040180806020018281038252600b8152602001807f6e6f7420616c6c6177656400000000000000000000000000000000000000000081525060200191505060405180910390fd5b60004790503373ffffffffffffffffffffffffffffffffffffffff166108fc829081150290604051600060405180830381858888f19350505050158015610174573d6000803e3d6000fd5b5050565b6000806000339050803b915060008263ffffffff1611925050509056fea265627a7a723158209438d35c28c71d814a71200555549dfb97f71eb62c58844613d4d89cf29851ad64736f6c63430005100032",
  "source": "pragma solidity 0.5.16;\ncontract Verify {\n    address owner;\n        constructor() public payable {\n        owner=msg.sender;\n    }\n    \n   modifier onlyOwner() {\n        require(msg.sender == owner, 'not allawed');\n        _;\n    }\n       \n       function withdrawAll() public onlyOwner{\n        uint256 totalAmount = address(this).balance;\n        msg.sender.transfer(totalAmount);\n       \n   }\n    \n    function isContract() public view returns(bool){\n      uint32 size;\n      address adr = msg.sender;\n      assembly {\n        size := extcodesize(adr)\n      }\n      return (size > 0);\n    }\n    \n   \n}\ncontract Check {\n    bool public checked;\n    Verify v;\n    constructor(address _v) public {\n        v = Verify(_v);\n        \n        checked = v.isContract();\n    \n    }\n    function isContract(address addr) public view returns (bool) {\n    bytes32 accountHash = 0xc5d2460186f7233c927e7db2dcc703c0e500b653ca82273b7bfad8045d85a470;\n    bytes32 codehash;\n    assembly {\n        codehash := extcodehash(addr)\n    }\n    return (codehash != 0x0 && codehash != accountHash);\n    }\n}",
  "sourcePath": "C:/Users/andre/Desktop/final_assigment/contracts/Verify.sol",
  "compiler": {
    "name": "solc",
    "version": "0.5.16+commit.9c3226ce.Emscripten.clang"
  },
  "schemaVersion": "3.0.22",
  "updatedAt": "2020-03-30T00:07:44.344Z",
  "devdoc": {
    "methods": {}
  },
  "userdoc": {
    "methods": {}
  }
}